:100000000C945E010C94A5010C94A5010C94A5011F
:100010000C94A5010C94A5010C94A5010C94A501C8
:100020000C94A5010C94A5010C94A2250C947526A2
:100030000C943E180C94A5010C94A5010C94A501F8
:100040000C94A5010C94A5010C94A5010C94A50198
:100050000C94A5010C949F180C94A5010C94A50177
:100060000C94A5010C94A5010C94A5010C94A50178
:100070000C94A5010C94A5010C94A5010C94A50168
:100080000C94A5010C94A5010C94A5010C94A50158
:100090000C94A5010C94A5010C94A5010C94A50148
:1000A0000C94A5010C94A5010C94A50168006900AD
:1000B0006A006B006C006D000100A900AA006E00D0
:1000C0006F007000710072007300010001000100F8
:1000D0000403300000000A0339004B00650079007A
:1000E0000000220342006900730068006F00700086
:1000F00020004B006500790062006F006100720013
:100100006400730000000403090409029F00040155
:1001100000A0FA09040000010301010009211101F6
:1001200000012240000705810308000A09040100BC
:10013000010300000009211101000122C000070590
:10014000820320000A080B020201010000090402D8
:100150000000010100000924010001090001030958
:10016000040300020103000007240100014100060E
:1001700024020101000624020202000924030103F3
:100180000102010009240302040101010009050420
:100190000240000500000525010101090583024018
:1001A00000050000052501010312011001000000F7
:1001B00008EDFE070001000102030105010902A18B
:1001C0000185020901A1000509190129051500256C
:1001D00001950575018102950175038101050109EC
:1001E0003009311581257F9502750881060938157A
:1001F00081257F950175088106050C0A3802158155
:10020000257F950175088106C0C005010980A101FF
:1002100085031A81002A8300160100260300950138
:1002200075108100C0050C0901A10185041A0100A7
:100230002A9C02160100269C02950175108100C0BF
:1002400005010906A1018505050719E029E7150043
:1002500025019508750181020507190029EF150090
:10026000250195F0750181020508190129059505FB
:1002700075019102950175039101C005010906A15F
:1002800001050719E029E715002501950875018189
:10029000029501750881010507190029FF1500263F
:1002A000FF009506750881000508190129059505C7
:1002B00075019102950175039101C00011241FBEC3
:1002C000CFEFDAE0DEBFCDBF04B603FE27C08091DA
:1002D0001A0390911B03A0911C03B0911D0387305A
:1002E000904BA740B04BD1F410921A0310921B030D
:1002F00010921C0310921D0314BE84B7877F84BF25
:100300000FB6F894A8958091600088618093600092
:10031000109260000FBEE0E0F8E3099511E0A0E064
:10032000B1E0E8EDF1E502C005900D92A833B10708
:10033000D9F723E0A8E3B1E001C01D92AA31B207CA
:10034000E1F70E9483220C94A7280C9400000C94DF
:10035000AA05CF93DF939C01FB019A9581159F41DC
:1003600060F5E901CC27D170D901AA27B270B90193
:1003700066277470A9014427587034FF10C080E1CB
:10038000CD2B09F480E0AB2B09F08062672B09F0DC
:100390008064452B09F08068DF91CF91099481E05A
:1003A000CD2B09F480E0AB2B09F08260672B09F0BC
:1003B0008460452B89F38860EFCFDF91CF9108955A
:1003C000CF93DF93EC01805E9109089720F063E6FC
:1003D0007FE0209711F466E97CE0CE010E94A9013C
:1003E0008C2FDF91CF910C948F0BCF93DF93EC0187
:1003F0000E94540CCE01805E9109089720F06AE6B5
:100400007FE0209711F46DE97CE0CE01DF91CF9180
:100410000C94A901CF93DF93D82FC92F0E94E0013C
:100420008D2F9C2FDF91CF910C94F50181E00895E1
:1004300081E008950C9418021F93CF93DF9300D0AE
:1004400000D00F92CDB7DEB749835A836B832091DA
:100450004F0189819A8121111BC06623A9F00E9456
:100460006115182F682F89819A810E940A15698168
:100470007A81812F0F900F900F900F900F90DF9146
:10048000CF911F910C94F6020E943815182FEFCFD0
:100490000E94611569817A81EDCFFC014081518113
:1004A0006281738184810C941C020E94B3168111B5
:1004B00002C00E9455170E9405080C94A7010C94D5
:1004C000AC05282F2F7041F0822F90E02A3010F4D5
:1004D0004D9608950697089587E290E0089508954F
:1004E0000C946F0281E008950C947202CF93C82F90
:1004F0000E9470028C2FCF910C94740208950E9478
:10050000870F0E947E022FEF84E39CE02150804001
:100510009040E1F700C0000087E797E7909301085B
:10052000809300080C94C3180F931F93CF93DF930D
:10053000EC010E944D028C01BE010E941A02882328
:10054000A9F1BE01C8010E947A08882379F1BE0191
:10055000C8010E941C09882349F1BE01C8010E94FC
:100560006009882319F18A81882341F001158CE5FF
:100570001807D1F00E3D8CE51807F1F006311C4547
:1005800051F50E94FE159A819923D9F08A7A91E05B
:1005900009F490E090933801811111C089E20E9422
:1005A000D9150E94501602C00E947F0280E0DF91A0
:1005B000CF911F910F9108950E945517F7CF85E3B2
:1005C000EECF80913801811104C089E20E94E015CC
:1005D000E8CF85E3FBCFCE01DF91CF911F910F9143
:1005E0000C94160290E080E008950895972F70E033
:1005F00023E0929F600D711D1124FB0199E0899FFA
:10060000E00DF11D1124EE0FFF1FE455FF4F859102
:1006100094910895FC01EE0FFF1FE053FF4F859169
:1006200094910895CF93DF930E94F6020E94CF0425
:10063000EC01811520E5920708F0A3C0811530E494
:10064000930708F012C1803E910508F079C0803C04
:10065000910508F0FEC0883A910580F4853A91052D
:1006600008F0ECC08130910509F47BC00497813A11
:10067000910508F476C0D0E0C0E073C08F3B9105CF
:10068000D1F3883A910509F445C1893A910509F4F5
:1006900044C18A3A910509F443C18B3A910509F4A2
:1006A00042C18C3A910509F441C18B3B910509F493
:1006B00040C18C3B910509F43FC18D3A910509F485
:1006C0003EC1803B910509F43DC18E3A910509F484
:1006D0003CC18F3A910509F43BC1813B910509F476
:1006E0003AC1823B910509F439C1833B910509F474
:1006F00038C1843B910509F437C1853B910509F464
:1007000036C1863B910509F435C1873B910509F453
:1007100034C1883B910509F433C1893B910509F443
:1007200032C18D3B910509F431C18E3B910509F42D
:1007300030C18A3B910509F42FC1C0E0D4E411C057
:10074000811540E2940788F48F3F910509F048F441
:10075000883E910530F0805F9109D065409708F0A0
:100760008ACFCE01DF91CF910895C11580E3D807DC
:1007700008F475C0CE019927D3FD74C0EC01D06C8C
:10078000F0CFC11595E5D90760F5C11524E5D2076D
:1007900008F09CC0C11533E5D30778F4C11542E5D4
:1007A000D40708F082C0C11581E5D80708F460C0FD
:1007B000DC2FCC27C16FD06AD4CFCE0183709927AC
:1007C00021E030E002C0220F331F8A95E2F7C69580
:1007D000C69590E2C99FE0011124C22BD32BDA68A1
:1007E000C0CFC1152AE5D207B0F4C11539E5D3074A
:1007F00008F07CC0C11546E5D40708F46CC0CE01F2
:1008000098558F3F910511F008F035CFDC2FCC279C
:10081000C06FD06AA6CFCE0190568115904208F0E5
:100820002ACF8D2F8F710E94670590E0982F88271F
:1008300088279F719C012C2BE90156C0853A9105B0
:1008400009F462C0863A910509F061C0C2E8D0E4BB
:1008500088CF805C91090E940A03EC0182CFCE010F
:100860009F70F9CFEC01D86C7CCFDF70D06A79CF64
:10087000CE0174E0969587957A95E1F783702C2FD9
:1008800026952695237040E2249F90011124382B51
:100890008C2F8370C1E0D0E002C0CC0FDD1F8A95A1
:1008A000E2F7C22BD32BDC685CCFCE018370992793
:1008B00021E030E002C0220F331F8A95E2F7C6958F
:1008C000C69580E2C89FE0011124EBCFDC2FCC2736
:1008D000C46FD06A46CF8C2F0E946705C82FD0E026
:1008E000DC2FCC27CC27DF71D0623BCF8C2F8F70D1
:1008F0000E94670534E0D695C7953A95E1F7CF7029
:10090000DC2FC82FD0692DCFC1E8D0E42ACFC3E8AF
:10091000D0E427CFC2EED4E424CFC9EED4E421CF73
:10092000CAEED4E41ECFC5EBD4E41BCFC6EBD4E4AF
:1009300018CFC3EBD4E415CFC4EBD4E412CFC7EB8C
:10094000D4E40FCFCCECD4E40CCFCDECD4E409CF7D
:10095000C3E8D5E406CFCAE8D5E403CFC2E9D5E4BD
:1009600000CFC4E9D5E4FDCEC1E2D6E4FACEC3E2BD
:10097000D6E4F7CEC4E2D6E4F4CEC5E2D6E4F1CEB6
:10098000C6E2D6E4EECEC7E2D6E4EBCECFE6D4E4C0
:10099000E8CEC0E7D4E4E5CECAE2D6E4E2CE803EBB
:1009A000910599F1C8F48133910509F476C048F4B2
:1009B0008932910509F46AC08A32910509F474C03C
:1009C000089589339105D1F082389105B9F08533C6
:1009D000910509F454C00895843E910599F138F4C5
:1009E000823E9105F9F0833E910509F10895863E16
:1009F000910599F1873E9105B9F1089520911E0264
:100A00002370A1F080EE90E0089520911E0220FD59
:100A100052C030911F0230FF09C024FF4FC090E048
:100A200080E004C020911E0222FDF7CF089520919E
:100A30001E0222FD46C030911F0230FDE3CF24FF8D
:100A4000F5CFEDCF20911F0221FFF0CF80911E0244
:100A500084FDE5CF87EE90E0089520911E0223FFEC
:100A6000E5CF24FDDCCFF6CF20911E0223FD2CC064
:100A700030911F0231FFE3CF84EE90E00895209182
:100A80001E0225FFD3CF89E290E0089520911E0237
:100A900025FFCCCF85E390E0089520911E0226FF2C
:100AA000C5CF8AE290E0089520911E0226FFBECFB6
:100AB00081E390E0089589E390E0089583EE90E06B
:100AC000089582EE90E0089586EE90E0089590916A
:100AD0001E0292FF06C0282F28712830F9F4877F64
:100AE000846093FF06C0282F28712831F1F4877E97
:100AF000846120911F0220FF06C0382F38713830E2
:100B0000D9F4877F816021FF06C0282F2871283102
:100B1000D1F4877E816194FD877E0895282F24710A
:100B20002430F9F68B7F8860DCCF282F24712431A4
:100B300001F78B7E8861DDCF382F3171313019F7A5
:100B40008E7F8860E0CF282F2171213121F78E7EA2
:100B50008861E1CF089508950C94AB05E82FF0E08B
:100B6000E75CFE4F808108950895CF93DF93A5E25F
:100B7000B1E048E251E0C1E0D0E08D91E82FE2958C
:100B8000EF70F0E061A18F709E0101C0220F8A9585
:100B9000EAF7922F9095962391A382A1822B82A3AC
:100BA0004A175B0751F7A2E2B1E045E251E0C1E02C
:100BB000D0E08D91E82FE295EF70F0E061A18F70A9
:100BC0009E0101C0220F8A95EAF7922F90959623F5
:100BD00091A382A1822B82A34A175B0751F710923F
:100BE0003C011092390110923D0110923A0110928D
:100BF0003E0110923B0183E00E948806DF91CF9175
:100C00000C9455027F928F929F92AF92BF92CF9297
:100C1000DF92EF92FF920F931F93CF93DF932CE31A
:100C200031E005E211E0812CEE24E394F12CE9019E
:100C3000B9909E01DE011E92F80181918F01E82F8B
:100C4000E295EF70F0E091A18F70B70101C0660FDF
:100C50008A95EAF7892F862B81A382A1A62EA094DC
:100C60008A2182A380EA8A95F1F782E2C82E81E088
:100C7000D82E50E040E0E60179906E01872D8295F4
:100C80008F7090E0EC0188A19C9090E0D72DDF70F0
:100C900002C095958795DA95E2F780FD37C08E2DD5
:100CA000042E01C0880F0A94EAF789298C934F5FBC
:100CB0005F4F43305105F9F681A18A2181A382A1BA
:100CC000682B62A381E09C919B1101C080E0882A7F
:100CD000D1E02F333D0709F0AACF282D43E069E387
:100CE00071E08CE391E00E9489060E945F02882DEA
:100CF000DF91CF911F910F91FF90EF90DF90CF90F8
:100D0000BF90AF909F908F907F90089580E0CDCF5F
:100D10000895FF920F931F93CF93DF93F82E092F1F
:100D2000162FD72FC42F222349F081E08093410151
:100D30000E946E189093400180933F018091410181
:100D40008823A1F080913F01909140010E947A1880
:100D5000069760F0EF2DF02FA12FBD2FCE0FDF2FC4
:100D6000D11DEC17FD0741F410924101DF91CF91A5
:100D70001F910F91FF90089581918D93F2CFEF9283
:100D8000FF920F931F93CF93DF93CDB7DEB7AC974E
:100D90000FB6F894DEBF0FBECDBF962FBA01A901E2
:100DA0002132310590F520EF29831A821B821C82A3
:100DB0007A0122E0E20EF11C0CE210E00E191F098C
:100DC000E1E0F0E0EC0FFD1F0E0F1F1FF801808324
:100DD0009183C80102960E945C28A701B801CE0148
:100DE00005960E943B1EBC01E5E0F0E0EC0FFD1F04
:100DF000E80FF91F87EF80836B5F7F4FAE014F5F76
:100E00005F4F80E292E00E94491BAC960FB6F894C7
:100E1000DEBF0FBECDBFDF91CF911F910F91FF902D
:100E2000EF9008950E945528DA016D937D938D937C
:100E30009C931397089581E008950C941B070C94DC
:100E40001D07EF92FF920F931F93CF93DF93CDB7C0
:100E5000DEB728970FB6F894DEBF0FBECDBFF82ED1
:100E6000E92E8B010E941F07882349F0D8012C919D
:100E7000203221F188F4203139F12131B1F4289662
:100E80000FB6F894DEBF0FBECDBFDF91CF911F919B
:100E90000F91FF90EF900895223468F4203478F792
:100EA000213269F32053223050F32F2D3E2DA8011B
:100EB00060E080E833C02038C1F7E1CFF8018181DC
:100EC000823069F08430F1F0D8011196EC91E15054
:100ED000ED30A8F6F0E0E755F74D0C944F28129648
:100EE0008C910E94C616F8018281282F30E050E0D4
:100EF00040E02D833E834F835887CA01B9010E9489
:100F00004613E2CF12968C9190E00E94D916DCCF66
:100F100030E020E050E040E061E081E10E94BF0667
:100F2000AECF82E090E00E946528898321E030E026
:100F3000AE014F5F5F4F68E0F0CF83E090E00E942A
:100F40006528898321E030E0AE014F5F5F4F62E0AA
:100F5000E4CF2091920130919301409194015091FE
:100F600095012D833E834F835887AE014F5F5F4FBE
:100F70006D817E818F8198850E94120724E030E088
:100F8000AE014F5F5F4F63E0C8CF30E020E050E03C
:100F900040E069E0C2CF30E020E050E040E065E0B2
:100FA000BCCF30E020E050E040E066E0B6CF0E94E9
:100FB000CB16898321E030E0AE014F5F5F4F64E0E4
:100FC000ACCF83E093E09A83898322E030E0AE01E6
:100FD0004F5F5F4F6DE0A1CF80E292E00C947E1DE9
:100FE000CF93DF93EC01FB0197FF0BC08281882335
:100FF00041F00E941B08CE019F770E945D080E946D
:10100000460881E0DF91CF9108958CE090E00E9446
:10101000652890E0B0E0A0E0809313029093140262
:10102000A0931502B09316020895609113028CE00C
:1010300090E00C9473280E94FE15809317020E9482
:101040001216809113028230A9F030F481110DC084
:1010500082EE0E948F0B02C0843099F08FE39CE9EE
:101060000197F1F700C00000089588E193E00E9425
:101070000A02F4CF82EE0E948F0B87E50E94830C58
:10108000EDCF86EE0E94830C88E1F8CF80911302A9
:10109000823019F030F481110AC082EE0E94540CA3
:1010A00002C0843041F0809117020C940F168CE23C
:1010B0000E94830CF8CF88E2FBCF0F931F93CF934E
:1010C000DF938C01CCE0D0E0C8010C2E02C09695D5
:1010D00087950A94E2F78F700E9461020E94830C48
:1010E0002497CC3F8FEFD80779F7DF91CF911F91ED
:1010F0000F9108950F931F93CF93DF93EC018B0112
:10110000FB018281882371F0C33EFCE5DF0719F102
:1011100088F4C13EECE5DE07C9F081E0C23EFCE5A3
:10112000DF0789F0B801CE01DF91CF911F910F91B8
:101130000C94F007C43E8CE5D80779F084E0C53EF6
:10114000ECE5DE0779F78093130202C010921302D8
:101150000E941508E7CF82E0F6CF83E0F4CF0F932B
:101160001F93CF93DF93C62FD42F022FFC018281D0
:101170008823C9F0609344010E946E189093430144
:101180008093420180E28C0F883008F050C0C77015
:1011900081E001C0880FCA95EAF7DF91CF911F91D6
:1011A0000F910C94960C10914401161335C0809148
:1011B0004201909143010E947A18883C910560F5A4
:1011C000C0E2CD0F1D17B9F080E2810F883040F4E6
:1011D000177081E001C0880F1A95EAF70E949D0CF4
:1011E000C83048F481E09D2F977001C0880F9A9510
:1011F000EAF70E94960C802F0E94830CC830B8F446
:10120000D77081E001C0880FDA95EAF7DF91CF91BE
:101210001F910F910C949D0C80E28C0F883038F454
:10122000C77081E001C0880FCA95EAF7EFCFDF9160
:10123000CF911F910F9108959C01CB01233F4CE565
:10124000340769F190F4283DFCE53F0721F1293D81
:101250004CE5340781F1273D3C45B1F0FC0182812A
:10126000882361F1109244010895253FFCE53F0772
:10127000D1F0263F4CE53407D1F0243F3C4571F7CF
:1012800027E245EE64EE03C026E241EE61EE0E94E5
:10129000AF0880E0089527E245EE65EEF8CF26E23C
:1012A00041EE60EEF4CF26E241EE62EEF0CF27E2AF
:1012B00045EE66EEECCF28E241E0EFCF81E0089505
:1012C000CF93DF93EC01FB018281882309F4C9C02D
:1012D000C631FCE5DF07E0F4C2309CE5D907F0F049
:1012E0000E94CB1690931F0280931E02C631ECE53C
:1012F000DE0720F5C230FCE5DF0798F480911E027E
:1013000090911F020E94D9160E94870F80E006C0AC
:101310009E012A5F3C452930310510F3DF91CF91C2
:101320000895FE01E350FC4580911E028160E33187
:10133000F10588F4EA54F74D0C944F28CA5FDC4558
:10134000C930D105D8F6C753D74DFE010C944F28AC
:1013500080911E02826080931E02D0CF80911E0277
:101360008460F9CF80911E028860F5CF80911F02C2
:10137000816080931F02C2CF80911F028260F9CFEB
:1013800080911E028061E7CF80911E028062E3CFD0
:1013900080911E028064DFCF0E94870F80911E0221
:1013A0008068D9CF80911E028C60D5CF80911F02BA
:1013B0008360DFCF80911E028E7FCDCF80911E0291
:1013C0008D7FC9CF80911E028B7FC5CF80911E0279
:1013D000877FC1CF80911F028E7FCBCF80911F026C
:1013E0008D7FC7CF80911E028F7EB5CF80911E0268
:1013F0008F7DB1CF80911E028F7BADCF0E94870F72
:1014000080911E028F77A7CF80911E02837FA3CF8A
:1014100080911F028C7FADCF80911E0282FB9927A5
:1014200090F921E0922790FB82F990FB83F993CF0A
:1014300080911F02982F909591708E7F892B90FB41
:1014400081F997CF0E94870F90911E02892F97FBF9
:1014500087F9805880CF81E00E9457174FCF80E0F6
:10146000FBCF81E05BCF90934A01809349010895BF
:10147000E0914901F0914A01309721F00190F0810B
:10148000E02D099480E00895DC01E0914901F0919C
:101490004A01309799F080911E01882351F0809184
:1014A0001E0287FF06C08C9111968C93119785E0E0
:1014B0008C930280F381E02DCD0109940895DC0125
:1014C000E0914901F0914A01309739F082E08C9324
:1014D0000480F581E02DCD01099408952091470104
:1014E000309148012817390771F090934801809393
:1014F0004701E0914901F0914A01309721F00680BF
:10150000F781E02D0994089520914501309146011D
:101510002817390771F09093460180934501E091B7
:101520004901F0914A01309721F00084F185E02DC6
:101530000994089585B7806885BF85B7806885BFA1
:101540000895089508950C94A10A08950C94A50A8D
:101550000E949A0A0E94A20A0C94A30A81E00895AC
:101560000E9465180E94B5050E94D4180C94A60A22
:10157000BF92CF92DF92EF92FF920F931F93CF9380
:10158000DF9300D000D00F92CDB7DEB70E940206E5
:101590000E94AE0A882309F474C08CE4C82E81E04E
:1015A000D82E10E000E0E02E802F0E94AE05B82E6D
:1015B000F601F1906F01F81609F45DC08091BF014A
:1015C00081FD0E94B40530E020E0FB244F2D50E067
:1015D000922FBA01022E02C0759567950A94E2F720
:1015E00060FF43C02983EA8221E030E0790102C034
:1015F000EE0CFF1C9A95E2F72B2D30E02E213F21B7
:1016000081E0232B09F480E08B830E946E188160B7
:10161000782F9D838C8349815A816B818D810E94B3
:10162000610BF801E45BFE4F80818E2580830E9470
:10163000731A0E94EC070E94380A90914B01891797
:1016400089F10E94380A80934B010F900F900F9000
:101650000F900F90DF91CF911F910F91FF90EF901E
:10166000DF90CF90BF900C9476022F5F3F4F2330D6
:10167000310509F0ADCF0F5F1F4F0330110509F0A1
:1016800092CF8FEF89838A831B820E946E188160BC
:10169000782F9D838C8349815A816B818D810E9433
:1016A000610BC5CF0F900F900F900F900F90DF91AF
:1016B000CF911F910F91FF90EF90DF90CF90BF904F
:1016C0000895CF93DF93CDB7DEB72B970FB6F8947D
:1016D000DEBF0FBECDBF4F83588769877A878B8760
:1016E0001E8285E0FE013796DE01119601900D9273
:1016F0008A95E1F749815A816B817C818D819E8138
:101700002B960FB6F894DEBF0FBECDBFDF91CF9101
:101710000C942012FC01808191810C94A3158823E4
:1017200009F4C1C09CEF980F913A20F40E94D9159A
:101730000C94501690E2980F983050F4877091E016
:1017400001C0990F8A95EAF7892F0E940116F0CF00
:101750009BE5980F933070F4853A31F0863A39F072
:1017600083E890E00C946E0A81E890E0FBCF82E879
:1017700090E0F8CF98E5980F973108F08EC0883A3E
:1017800009F446C0893A09F446C08A3A09F446C0C9
:101790008B3A09F446C08C3A09F446C08B3B09F4F5
:1017A00046C08C3B09F446C08D3A09F446C0803BE4
:1017B00009F446C08E3A09F446C08F3A09F446C08F
:1017C000813B09F446C0823B09F446C0833B09F4DF
:1017D00046C0843B09F446C0853B09F446C0863BBD
:1017E00009F446C0873B09F446C0883B09F446C06B
:1017F000893B09F446C08D3B09F446C08E3B09F491
:1018000046C08A3B09F446C090E080E00C94840A0C
:1018100082EE90E0FBCF89EE90E0F8CF8AEE90E088
:10182000F5CF85EB90E0F2CF86EB90E0EFCF83EB46
:1018300090E0ECCF84EB90E0E9CF87EB90E0E6CF4F
:101840008CEC90E0E3CF8DEC90E0E0CF83E891E08A
:10185000DDCF8AE891E0DACF82E991E0D7CF84E961
:1018600091E0D4CF81E292E0D1CF83E292E0CECF7B
:1018700084E292E0CBCF85E292E0C8CF86E292E0AC
:10188000C5CF87E292E0C2CF8FE690E0BFCF80E77E
:1018900090E0BCCF8AE292E0B9CF803F20F00E9476
:1018A00081190C94681A0895882361F19CEF980FB0
:1018B000913A20F40E94E0150C94501690E2980F93
:1018C000983050F4877091E001C0990F8A95EAF73B
:1018D000892F0E940716F0CF9BE5980F933020F4D4
:1018E00090E080E00C946E0A98E5980F973120F410
:1018F00090E080E00C94840A803F20F00E94E91977
:101900000C94681A0895CF93C82F0E948F0BC93387
:1019100049F42FEF87EE93E0215080409040E1F7AB
:1019200000C000008C2FCF910C94540C882321F020
:101930000E9401160C9450160895882321F00E94ED
:1019400007160C9450160895AF92BF92CF92DF9273
:10195000EF92FF920F931F93CF93DF9300D000D0AD
:101960000F92CDB7DEB76C016D837983FC010581E1
:1019700002950F70128111110E9423160E94F71513
:10198000E82E882371F01123B1F08D81805E8830BC
:1019900090F082E00E949B160E94F71591E0E82EDD
:1019A000E926A980A2949FE0A922B12CF501EE526C
:1019B000F74D0C944F28E12CF4CF09810F70F98179
:1019C000F07F11F00295007F1123B1F0002361F048
:1019D0008D81805E883018F02D81211109C0802F03
:1019E0000E9401160E9450168D810E948F0B15C017
:1019F000802F0E941516F6CF8D810E94540C002373
:101A000061F08D81805E883018F04D81411133C0C6
:101A1000802F0E9407160E94501658E0A51AB108A0
:101A200064E0A616B10420F40E94380A0E947602EF
:101A3000EE2009F40EC20E94F31580FD0AC2F601E1
:101A400012820E94ED150E94FA13C6010E94390FFE
:101A50000E94ED150F900F900F900F900F90DF9157
:101A6000CF911F910F91FF90EF90DF90CF90BF909B
:101A7000AF900C942B14802F0E941B16CCCF598151
:101A80005F70F52E6981607F603219F0F29480EF0B
:101A9000F8227D81772369F0713049F1112391F1AA
:101AA000002351F1F601858180FF9ECF8F708583E1
:101AB00023C0112381F0011106C00E9437168F291F
:101AC0000E94960CAACF0130C1F70E9437168F29C9
:101AD0000E943D16A2CF011106C00E9446168F2D0E
:101AE0000E949D0C9ACF013009F497CFF6CF1123B5
:101AF00029F0063008F091CF8F2DE2CF053008F0A5
:101B00008CCFEDCF002359F3FD81F93349F42FEF4A
:101B100047EE53E0215040405040E1F700C0000044
:101B20008D810E94540C79CF89818695869583702A
:101B300069F0813009F071CF8D8199819370111115
:101B400002C090E080E00E94840A67CF8D81998175
:101B50009370111102C090E080E00E946E0A5DCF88
:101B6000112311F16D81653F99F0663FB9F0643F33
:101B700049F48091180290911902816090931902A2
:101B8000809318028D810E9481190E94681A45CFA6
:101B900080911802909119028260F0CF8091180212
:101BA000909119028460EACF7D81753F89F0763F7C
:101BB000A9F0743F49F480911802909119028E7F28
:101BC00090931902809318028D810E94E919DDCF4C
:101BD00080911802909119028D7FF2CF80911802A6
:101BE000909119028B7FECCF8981837009F059C0E5
:101BF000111113CF4D81429546954770440F440F04
:101C00008D818F7090E0B0E0A0E0042E04C0880FBA
:101C1000991FAA1FBB1F0A94D2F7ED8100E010E0C4
:101C20009801E4FF0FC00FE010E020E030E004C0B6
:101C3000000F111F221F331F4A95D2F700951095F0
:101C400020953095F981F695F695F370FD83B901ED
:101C5000A801482B592B6A2B7B2B49835A836B8312
:101C60007C83F23081F0F330A9F0F13029F0CB0120
:101C7000BA010E947013D1CE69817A818B819C81D7
:101C80000E944813CACE69817A818B819C810E940F
:101C90009813C3CE69817A818B819C810E944613FF
:101CA000BCCE8695112311F089818170882309F4B7
:101CB000B4CE4D81429546954770440F440F8D81B7
:101CC0008F7090E0B0E0A0E0042E04C0880F991F50
:101CD000AA1FBB1F0A94D2F75D8100E010E09801B3
:101CE00054FF0FC00FE010E020E030E004C0000F10
:101CF000111F221F331F4A95D2F70095109520958A
:101D0000309569816695669563706D83B901A80108
:101D1000482B592B6A2B7B2B49835A836B837C83FB
:101D20005D8169817A818B819C81523051F0533081
:101D300059F0513019F00E94B9146FCE0E949114DD
:101D40006CCE0E94E11469CE0E94C41366CE6981F4
:101D50006F706983112329F0862F0E94FA138D81F9
:101D6000AFCE8D810E949D0C89810E942B1455CE8F
:101D70007D81723FA1F160F4703FE1F0713F41F16C
:101D8000112309F445C001112FCE89818F7124C020
:101D90008D81833F49F1843F99F7112379F199812E
:101DA0009F719983892F0E94FA1363E089810E94B1
:101DB000861633CE112341F0053008F02ECE8981EE
:101DC0008F710E94601429CE063008F026CEF7CF1E
:101DD00089818F71112349F20E94FA131ECE8981E5
:101DE0008F711123C9F3C1CF112329F089818F711C
:101DF0000E94D51312CE0E94D0130FCE81E00E9414
:101E00009B16023008F409CE82E00E949B1605CE94
:101E1000002361F0ED81E93309F082CEFFEF27EE78
:101E200043E0F15020404040E1F778CE89818F7146
:101E30009CCF49814F706D81C6010E94F2020E94C1
:101E4000BA12EBCD49814F706D81C6010E94F50237
:101E5000E4CD0F900F900F900F900F90DF91CF91E6
:101E60001F910F91FF90EF90DF90CF90BF90AF90B8
:101E700008950F931F93CF93DF93EC018B819C8187
:101E8000892B29F08881998189238F3F29F4DF915B
:101E9000CF911F910F910895CE010E949402882343
:101EA000B1F3688179818A810E94AF158C010E940B
:101EB00009150E944513B801CE01DF91CF911F9102
:101EC0000F910C94A40C882321F00E9415160C94F9
:101ED00050160895882321F00E941B160C9450166A
:101EE00008950E9423160E9434160E9450160E94E4
:101EF0000A1B0E94681A90E080E00E946E0A90E03F
:101F000080E00C94840A0E94E7150C94710F0E94E3
:101F100012160C94830F282F892F82958F70903C76
:101F200080F48A30B0F4843020F4823090F480E081
:101F300008958630E1F781E0283E88F0213FB9F727
:101F40000EC08C3011F08F3091F793FB882780F909
:101F5000089581E0203F39F018F4283E40F70895B5
:101F6000243F29F7FCCF08950E94A3150C948B0FF2
:101F7000CF93DF9300D000D00F92CDB7DEB70F9094
:101F80000F900F900F900F90DF91CF910895CF9306
:101F9000DF9300D000D000D0CDB7DEB726960FB6C5
:101FA000F894DEBF0FBECDBFDF91CF9108951F9390
:101FB000CF93DF93E091500116E0809151018E1391
:101FC00004C0DF91CF911F910895CE2FD0E01E9FC6
:101FD000F0011124EE5AFE4F4081518162817381DC
:101FE000848195810E94C70FFE013196E770E5CF8D
:101FF000409182015091830160918401709185012B
:1020000080918601909187010C94C70F1F93CF9305
:10201000DF9380918701807FC1F4809184018823C0
:10202000A1F080915001C0915101609182017091A5
:1020300083014091850150918601D62FD723DA0183
:10204000A095B09516E0C81304C0DF91CF911F9101
:10205000089590E04115510511F0DF3F31F40196EC
:102060008770F1CF2A0F3B1F17C0189FF001199FEF
:10207000F00D1124EE5AFE4F21812713F0CF20815D
:102080002613EDCF22812111EACF23813481241739
:10209000350740F3241B350B283C310500F7209110
:1020A00087012F7020612093870126E0289FF0018F
:1020B000299FF00D1124E95AFE4F80818F708061B5
:1020C000808382E891E00E94390FDF91CF911F91C8
:1020D0000C94D70F9F92AF92BF92CF92DF92EF9264
:1020E000FF920F931F93CF93DF93CDB7DEB72B975C
:1020F0000FB6F894DEBF0FBECDBF8C0185E0F801AE
:10210000DE01179601900D928A95E1F7D8014C9166
:1021100011965C9111971296EC901297809185011F
:1021200090918601009709F46CC120918201309151
:102130008301632F62236F3F09F463C11396CD902F
:10214000DC9090908401992009F4FAC0C816D90651
:1021500008F43FC0F601E81BF90BCF01FF24F3940C
:10216000883C910508F0F12C82E8A82E81E0B82E79
:1021700080918701982F907FFF2009F4B9C09111B9
:1021800080C0FE2C35132AC0241328C0E11026C0BD
:102190008F708061809387010E94F80FC5010E94B3
:1021A000390F80918701D80115968C938F2D2B962E
:1021B0000FB6F894DEBF0FBECDBFDF91CF911F9158
:1021C0000F91FF90EF90DF90CF90BF90AF909F90D6
:1021D0000895809590958C0D9D1DC0CFCD2829F038
:1021E000842F85238F3F09F028C180E0B82FB1707C
:1021F000DB2EE09150012091510136E080FD1CC0A2
:10220000EE20A1F280918701816080938701F12CFB
:10221000CDCF8E2F90E03E9FF0011124EE5AFE4F5D
:102220006181651306C06081641303C062816E1111
:10223000E7CFFC013196E770E213EBCF4F8358876D
:102240008F8198850E94A315292F22952F70903297
:1022500060F0225F2F70223078F49F7051F0F80107
:102260009581907F31F4D12C0AC09F7011F08823A2
:10227000D1F3805E8830B8F3C8010E94390FFD2C7D
:1022800095CF351306C0241304C0D801EE2009F4FD
:102290007CC04F8358878F8198850E94B40F882314
:1022A00019F1EE2009F180918701803270F02091C0
:1022B0008201309183013A8329831B82DD82CC82A3
:1022C0008E83CE0101960E94390F86E0F801A2E8C4
:1022D000B1E001900D928A95E1F70E9406100E94EC
:1022E000F80FFF24F39462CFC8010E94390FF9CF91
:1022F000911113C07C2DDB86CA866E2D8B850E94C2
:10230000B80F82E891E00E94390F86E0F501119242
:102310008A95E9F70E94F80F49CF3513BACF2413F5
:10232000B8CFE110B6CFD80115968C93C8010E94A2
:10233000390F86E0F50111928A95E9F7F92C36CF2D
:10234000C816D90680F1B601681B790BCB01F12CB8
:10235000883C910508F046C0FE2CEE2029F235138A
:1023600030C024132EC08091870180FD21C0982F9A
:10237000907FF1F0D80115968C931597903F39F026
:10238000982F907F905F8F70892B15968C93C80142
:102390000E94390F86E0F801A2E8B1E001900D92A9
:1023A0008A95E1F7B7CF809590958C0D9D1DCFCF85
:1023B00086E0F801A2E8B1E001900D928A95E1F77C
:1023C000F5CE4F8358878F8198850E94B40F811175
:1023D0007CCF80918701816080938701C8010E9432
:1023E000390FE4CE7C2DDB86CA866E2D8B850E944C
:1023F000B80F86E0E2E8F1E0DF011D928A95E9F787
:1024000089CFEE2009F470CF4F8358878F8198854C
:102410000E94B40FF82E882309F466CF86E0F801F5
:10242000A2E8B1E001900D928A95E1F782E891E08F
:102430000E948A0B0E9406106DCF81E08E25D6CEB9
:102440001F93CF93DF93CDB7DEB72C970FB6F894D9
:10245000DEBF0FBECDBF4F83588769877A878B87D2
:102460009C87CE0107960E946A10882369F08A85AE
:102470009B85892B39F04F815885842F85238F3F89
:1024800009F071C016E05FC086E0FE013796DE01FC
:10249000119601900D928A95E1F78A859B85892B8B
:1024A00089F388859F8189238F3F61F320915101B2
:1024B00030E0C90101968770992740915001481773
:1024C000190671F40E94870F109251011092500169
:1024D00086E0E2E8F1E0DF011D928A95E9F7D2CFCC
:1024E00096E0929FD001939FB00D1124AE5ABE4F3B
:1024F000FE01319601900D929A95E1F7809351017A
:102500000E94D70FBFCF819FC00111248E5A9E4FCA
:102510000E946A108823E9F0E09150011E9FF001AB
:102520001124EE5AFE4F4081518162817381848172
:1025300095810E94C70F8091500190E001968770AD
:1025400099278093500180915001909151018913F6
:10255000DACF2C960FB6F894DEBF0FBECDBFDF9159
:10256000CF911F91089569857A858B859C850E94FE
:10257000C70F88CFEF92FF920F931F93CF93DF93F4
:102580008C01892B89F0F12CEE24E394E80121964B
:10259000F8018491843709F457C0A0F4823009F41B
:1025A0003EC048F48130D1F0DF91CF911F910F915F
:1025B000FF90EF9008959CEF980F9037A8F70E9436
:1025C0008F0B0AC0853709F44CC09CE7980F9037F1
:1025D00058F78F770E94540C8E0116C00E5F1F4F64
:1025E000FE01849190E2980F983060F48770FE2D80
:1025F00001C0FF0F8A95EAF78F2F0E9426160E94CE
:10260000501602C00E948F0B8F2D815008F4BECF50
:10261000EFE9FFE03197F1F700C00000F6CF0E5F61
:102620001F4FFE01849190E2980F983050F487700C
:10263000FE2D01C0FF0F8A95EAF78F2F0E942C16FE
:10264000DECF0E94540CE0CF0E5F1F4FFE01C491FD
:10265000C150D0F28FE99FE00197F1F700C0000070
:10266000F7CF0E5F1F4FFE01F490CECF08950C946C
:1026700036130E94371360939601709397018093ED
:102680009801909399010C94710F08950C9439134B
:10269000CF93DF9300D000D0CDB7DEB769837A83C4
:1026A0008B839C838091960190919701A0919801D2
:1026B000B091990129813A814B815C81282B392B7A
:1026C0004A2B5B2B29833A834B835C83CA01B90174
:1026D0000F900F900F900F90DF91CF910C943913C2
:1026E000CF93DF9300D000D0CDB7DEB769837A8374
:1026F0008B839C838091960190919701A091980182
:10270000B091990129813A814B815C812823392339
:102710004A235B2329833A834B835C83CA01B90133
:102720000F900F900F900F90DF91CF910C94391371
:10273000CF93DF9300D000D0CDB7DEB769837A8323
:102740008B839C838091960190919701A091980131
:10275000B091990129813A814B815C8128273927E1
:102760004A275B2729833A834B835C83CA01B901DB
:102770000F900F900F900F90DF91CF910C94391321
:102780000C9436130C94C0130E94C21360939201F0
:102790007093930180939401909395010C94710F21
:1027A00060E070E0CB010C94C4130F931F93CF93A0
:1027B000DF9300D000D0CDB7DEB741E050E060E05D
:1027C00070E08A019B0104C0000F111F221F331FFC
:1027D0008A95D2F709831A832B833C83C901B801F8
:1027E0000F900F900F900F90DF91CF911F910F914D
:1027F0000C94C4130F931F93CF93DF9300D000D09A
:10280000CDB7DEB741E050E060E070E004C0440FB7
:10281000551F661F771F8A95D2F78091920190917C
:102820009301A0919401B09195018A019B01082B1D
:10283000192B2A2B3B2B09831A832B833C83C90139
:10284000B8010F900F900F900F90DF91CF911F91D3
:102850000F910C94C4130F931F93CF93DF9300D069
:1028600000D0CDB7DEB741E050E060E070E004C0DA
:10287000440F551F661F771F8A95D2F740955095D4
:10288000609570958091920190919301A09194012F
:10289000B09195018A019B01082319232A233B2328
:1028A00009831A832B833C83C901B8010F900F90D1
:1028B0000F900F90DF91CF911F910F910C94C41343
:1028C0000F931F93CF93DF9300D000D0CDB7DEB727
:1028D00041E050E060E070E004C0440F551F661F07
:1028E000771F8A95D2F78091920190919301A091E0
:1028F0009401B09195018A019B01082719272A2785
:102900003B2709831A832B833C83C901B8010F90AD
:102910000F900F900F90DF91CF911F910F910C941A
:10292000C413CF93DF9300D000D0CDB7DEB7698357
:102930007A838B839C838091920190919301A091E3
:102940009401B091950129813A814B815C81282BBA
:10295000392B4A2B5B2B29833A834B835C83CA0137
:10296000B9010F900F900F900F90DF91CF910C94C1
:10297000C413CF93DF9300D000D0CDB7DEB7698307
:102980007A838B839C838091920190919301A09193
:102990009401B091950129813A814B815C81282372
:1029A00039234A235B2329833A834B835C83CA01FF
:1029B000B9010F900F900F900F90DF91CF910C9471
:1029C000C413CF93DF9300D000D0CDB7DEB76983B7
:1029D0007A838B839C838091920190919301A09143
:1029E0009401B091950129813A814B815C8128271E
:1029F00039274A275B2729833A834B835C83CA01A3
:102A0000B9010F900F900F900F90DF91CF910C9420
:102A1000C4130895292F220FE22FE90FE80F8E2FFC
:102A2000877041E001C0440F8A95EAF7E695E69584
:102A3000E69585E0E89FF0011124E857FE4F30E06D
:102A400020E070E05191DF011197CB01022E02C00E
:102A5000969587950A94E2F781708195852784235E
:102A600085278C932F5F3F4F2530310559F7089507
:102A7000292F220FE22FE90FE80F9E2F9770E6957E
:102A8000E695E69585E0E89FF0011124E857FE4FB2
:102A900050E040E080E0219130E0092E02C0369500
:102AA00027950A94E2F721703327042E01C0220FE4
:102AB0000A94EAF7822B4F5F5F4F4530510559F773
:102AC0000895BF92CF92DF92EF92FF920F931F93E0
:102AD000CF93DF938C01C0909201D0909301E0904E
:102AE0009401F09095018091960190919701A091A9
:102AF0009801B0919901C82AD92AEA2AFB2ACFE184
:102B0000D0E0BC2ED701C6010C2E04C0B695A79507
:102B1000979587950A94D2F780FD0EC0219788F784
:102B2000B12C8B2DDF91CF911F910F91FF90EF90E2
:102B3000DF90CF90BF900895B8018C2F0E941203B0
:102B4000019761F3EECFCF93DF93D82FC92F0E9467
:102B500061156D2F7C2FDF91CF910C9412031F9381
:102B6000CF93DF93162FD72F90914F01992339F0F0
:102B7000862F972FDF91CF911F910C94A315882357
:102B800091F0862F972F0E946115C82F682F812FF3
:102B90009D2F0E940A15612F7D2F8C2FDF91CF91E1
:102BA0001F910C941203862F972F0E943815C82F5F
:102BB000F2CF682F80910001909101010C94C2170F
:102BC000682F80910001909101010C94CD178091A4
:102BD0000001909101010C94D81780919A0185957C
:102BE00085958595089580919A01877008959091B3
:102BF0009A01977081E009F480E008958091BE0108
:102C000008959091BE01982B9093BE010895982F3E
:102C100090958091BE0189238093BE010895809391
:102C2000BE0108951092BE0108959091BD01982BA8
:102C30009093BD010895982F90958091BD018923AF
:102C40008093BD0108951092BD0108959091BC013B
:102C5000982B9093BC010895982F90958091BC017A
:102C600089238093BC0108951092BC01089580913E
:102C70009B01089508950C943A1690919B01981722
:102C800021F080939B010C943B16089580919B0149
:102C9000882329F010929B0180E00C943B16089544
:102CA000E0910001F09101018091BE018083E091EB
:102CB0000001F091010180819091BD01892B8083F9
:102CC000E0910001F091010180819091BC01892B7C
:102CD000808390919B01992381F0E0910001F09114
:102CE00001018081892B80838091000190910101F5
:102CF0000E945C1781110E944616809100019091FC
:102D000001010C94440A08950C94831698E0899F5D
:102D100090011124622B60939A010E94FA13809112
:102D20009A018595859585950C94841610929A0143
:102D300080E00C94841690919A0180958923809369
:102D40009A01282F277071F4282F082E000C330BBE
:102D50009217130639F08595859585950E942B1459
:102D60000C949616089590E080E00E946D289C01D6
:102D700081E02C3E3E4F09F080E0089582E090E033
:102D80000C94652883E090E00C946528682F83E01C
:102D900090E00C947328CF9384E090E00E94652823
:102DA000C82F81E290E00E946528982F8C2FCF9148
:102DB0000895CF93682FC92F84E090E00E94732874
:102DC0006C2F81E290E0CF910C947328AB01BC0191
:102DD0008FE090E00C948528AB01BC0183E190E08A
:102DE0000C94852860E070E0CB010C94EC1660E058
:102DF00070E0CB010E94E6160C94F2166CEE7EEFAA
:102E000090E080E00E94912860E082E090E00E94E3
:102E1000732860E083E090E00E947328109296018E
:102E200010929701109298011092990160E084E04D
:102E300090E00E94732860E081E290E00E94732895
:102E400060E085E090E00E94732860E086E090E01A
:102E50000E9473286FEF87E090E00E94732840E0A3
:102E600050E0BA0188E090E00E94852860E08DE0A3
:102E700090E00E94732840E050E0BA0188E190E0C1
:102E80000E94852860E087E190E00E94732840E07E
:102E900050E0BA018CE190E00E94852860E080E279
:102EA00090E00E9473280C94F7160C94FE16682F7D
:102EB0008EE090E00C947328FC01329680911E0104
:102EC000882321F080911E029EE187FF96E080E03A
:102ED000915008F4089521912223D1F38F5FF8CF08
:102EE0009C01FC0132968FEF90E04191461751F022
:102EF0008F3F19F4411101C0892F9F5F9630A9F7C8
:102F00008F3F09F40895280F311D87FD3A95F90187
:102F1000628308959C01FC013296285F3F4F8191A6
:102F2000861303C0DF0111971C92E217F307B9F76C
:102F30000895E62FE695E695E695603F68F4E80F7C
:102F4000F92FF11D677021E030E001C0220F6A9572
:102F5000EAF78281822B82830895E62FE695E69533
:102F6000E695603F70F4E80FF92FF11D677081E07E
:102F700090E001C0880F6A95EAF7809592818923D5
:102F80008283089520911E01222329F020911E02A0
:102F900027FD0C9499170C94701720911E01222381
:102FA00029F020911E0227FD0C94AD170C948A176E
:102FB000FC01329680911E01882351F080911E02FF
:102FC00087FF06C08EE1DF011D928A95E9F708951B
:102FD00086E0F9CF089508950C94EB170E94EC1742
:102FE00080911103843049F11092C00188E190E092
:102FF00020E40FB6F894A895809360000FBE20934C
:10300000600080E00E9476020E94EC1783B7817F07
:10301000846083BF83B7816083BF7894889583B7CA
:103020008E7F83BF0FB6F894A89580916000886169
:1030300080936000109260000FBE08950895CF93B2
:103040000E94EA170E9402060E941E18C0E08C2F00
:103050000E94AE05811105C0CF5FC330C1F7CF918B
:10306000089581E0FCCF08950C9433180E94870FD7
:103070000E94380A0E9476020C9434181F921FB6E0
:103080001F9211248F939F93AF93BF938091C001A0
:10309000811113C080911A0290911B02A0911C0211
:1030A000B0911D024196A11DB11D80931A0290930B
:1030B0001B02A0931C02B0931D02BF91AF919F9180
:1030C0008F911F901FBE1F90189582E084BD93E0E2
:1030D00095BD9AEF97BD80936E0008952FB7F89431
:1030E00080911A0290911B02A0911C02B0911D02C6
:1030F0002FBF0895CF92DF92EF92FF929C014FB7BE
:10310000F89480911A0290911B02A0911C02B09138
:103110001D024FBF6C017D01EE24FF24A90170E068
:1031200060E0C416D506E606F70638F0821B930B5E
:10313000FF90EF90DF90CF9008950197F7CF7894AC
:103140001F921FB61F9211248F939F93AF93BF932B
:1031500080911A0290911B02A0911C02B0911D0255
:103160000196A11DB11D80931A0290931B02A0939A
:103170001C02B0931D02BF91AF919F918F911F9040
:103180001FBE1F90189587E797E7909301088093DB
:10319000000888E19AE00FB6F894A8958093600043
:1031A0000FBE90936000FFCFCF93DF9300D000D08D
:1031B000CDB7DEB70E94B316811102C00E94551729
:1031C0000E94BE168093BF010E94CB1690931F02EF
:1031D00080931E020E94C216282F30E050E040E08B
:1031E00029833A834B835C83CA01B9010F900F9006
:1031F0000F900F90DF91CF910C9446138091C401F2
:1032000080FF12C06091050185E0689FB001112424
:10321000759567957595679560387105A8F5611581
:103220007105A1F1862F089581FF09C06091050104
:1032300085E0689FB001112475956795EDCF609189
:10324000050182FD0AC08091C3018823D1F09091CD
:10325000040160910501891728F085E0689FB0019D
:103260001124DACF869FB001112485E0869F90015A
:10327000879F300D1124692F70E0C9010E943B28FF
:10328000CBCF65E070E0CECF8FE7089581E0089561
:103290008091C40180FF0CC06091030170E07595BE
:1032A0006795759567956115710549F1862F0895A4
:1032B00081FF06C06091030170E075956795F3CFBB
:1032C0006091030182FD0BC09091C3019923A1F08D
:1032D0006091020180910301961738F0682F70E029
:1032E0006038710500F38FE70895899FC0011124AC
:1032F00070E00E943B28F4CF61E070E0D7CF81E01E
:103300000895803F31F40E94FE1881958093C80192
:103310000895813F19F40E94FE18F8CF823F31F4DE
:103320000E94FE1881958093C7010895833F19F488
:103330000E94FE18F8CF893F29F40E944819809313
:10334000C90108958A3F21F40E9448198195F7CF59
:103350008B3F31F40E94481981958093CA010895EA
:103360008C3F19F40E944819F8CF843F31F48091C2
:10337000C60181608093C6010895853F21F4809144
:10338000C6018260F7CF863F21F48091C601846038
:10339000F1CF873F21F48091C6018860EBCF883F51
:1033A00021F48091C6018061E5CF8D3F31F4809199
:1033B000C40181608093C40108958E3F21F48091FF
:1033C000C4018260F7CF8F3FB9F78091C401846058
:1033D000F1CF9091C701803F41F48091C80187FDF2
:1033E0001092C801992371F00895813F29F48091CA
:1033F000C8011816ACF3F6CF823F81F497FFF2CFE5
:103400001092C7018091C8019091C901892B9091B8
:10341000CA01892B49F71092C3010895833F19F41B
:10342000191674F3DFCF893F39F48091C90118165A
:10343000CCF61092C901D6CF8A3F29F48091C901F8
:1034400087FFD0CFF6CF8B3F39F48091CA0187FF39
:10345000C9CF1092CA01C6CF8C3F29F48091CA010E
:103460001816BCF3BFCF843F31F48091C6018E7F24
:103470008093C601B7CF853F21F48091C6018D7F2F
:10348000F7CF863F21F48091C6018B7FF1CF873F34
:1034900021F48091C601877FEBCF883F21F4809192
:1034A000C6018F7EE5CF8D3F31F48091C4018E7FC0
:1034B0008093C40197CF8E3F21F48091C4018D7F0A
:1034C000F7CF8F3F09F08ECF8091C4018B7FF0CF73
:1034D00085EC91E00E945F0A0E946E189093C201F1
:1034E0008093C10108951F93CF93DF938091C10111
:1034F0009091C2010E947A18AC018091C301209181
:10350000060130E0811106C0209107019AE0299F51
:10351000900111244217530778F02091C701C09100
:10352000C8011091C901D091CA01211109C09C2F75
:10353000912B9D2B09F06AC0DF91CF911F910895C7
:103540008F3F19F08F5F8093C301121624F40E94FD
:10355000FE188093C7018091C70187FF05C00E94B4
:10356000FE1881958093C7011C1624F40E94FE1852
:103570008093C8018091C80187FF05C00E94FE1892
:1035800081958093C8013091C7013323A1F0209128
:10359000C801222381F045EB3403C0011124992393
:1035A00069F19093C70145EB240390011124332363
:1035B00049F13093C801111624F40E9448198093F0
:1035C000C9018091C90187FF05C00E9448198195F2
:1035D0008093C9011D1624F40E9448198093CA01E2
:1035E0008091CA0187FF05C00E9448198195809388
:1035F000CA01DF91CF911F910C94681A81E08093EA
:10360000C701D1CF81E08093C801D5CF8F3F09F0AA
:1036100099CFAACF86E0E5ECF1E0DF011D928A9513
:10362000E9F71092C3011092C4010895881F8827FA
:10363000881F0895982F81E0983F08F480E008954E
:10364000982F907F903D69F070F4903B31F038F402
:10365000903A19F0807E803899F483E00895903C88
:1036600079F482E00895903EC1F3903F49F4EFE091
:10367000E80F813F28F0F0E0E85DFE4F808108957B
:1036800080E008950F93DC01ED91FC9109950F9175
:1036900008954F925F926F927F928F929F92AF9216
:1036A000BF92CF92DF92EF92FF920F931F93CF932F
:1036B000DF9300D00F92CDB7DEB7182F792E6B01B4
:1036C0004A01F12CE12C40901F01509020016090A4
:1036D0002101EC14FD04A0F00F900F900F90DF91EA
:1036E000CF911F910F91FF90EF90DF90CF90BF90FF
:1036F000AF909F908F907F906F905F904F900895C4
:1037000049825A826B825601AE18BF0884E0A8161F
:10371000B10418F083E0A82EB12CB4016E0D7F1D0A
:10372000A501CE0101960E945C280B812A81498166
:10373000B501812F972D0E94421B83E0E80EF11CFA
:10374000C8CFFC01738362830895FC01738F628F7D
:103750000895FC01758F648F0895CF93DF93EC017A
:103760001DA21FA21EA2BC01685D7F4F40EC8851C4
:103770009F4F0E94B21D1B821A821D821C821F82D3
:103780001E82198618861B861A861D861C861F8631
:103790001E86198A188A1B8A1A8A1D8A1C8A1F8A01
:1037A0001E8A198E188E1B8E1A8E1D8E1C8E1F8ED1
:1037B0001E8E19A218A2DF91CF910895EF92FF9269
:1037C0000F931F93CF93DF93EA018A01060F111D18
:1037D0007C0128EEE20EF11CC017D10739F4DF910D
:1037E000CF911F910F91FF90EF9008956991C701BC
:1037F0000E94B91DF1CFFC01718360830895FC0123
:1038000071A360A30895AF92BF92CF92DF92EF921F
:10381000FF920F931F93CF93DF9300D00F92CDB7FA
:10382000DEB77C016B01142FB22EA02EDC01959621
:103830008C9195978430A9F55A96ED91FC9130972B
:10384000E9F1CB01019763E070E00E942728CB01EA
:10385000880F991F860F971F4983BA820B834C2DBF
:10386000481B9E012F5F3F4FBC01C7010995D7013F
:103870005E96ED91FC91309731F00A2D2B2D412F62
:10388000B601C70109950F900F900F90DF91CF916E
:103890001F910F91FF90EF90DF90CF90BF90AF906E
:1038A00008956230710509F452C06330710599F0D2
:1038B0006130710509F47AC0D12CC12CD7015C9616
:1038C000ED91FC91309799F20A2D2B2D412FB601E5
:1038D000C7010995CCCF842F807F803BF1F058F44D
:1038E000803931F1803A49F1803841F7D701169695
:1038F000ED91FC9116C0803E29F1803FF9F6423FE0
:10390000E9F6D7011C96ED91FC91202F4B2D62EF2B
:103910003097A1F2C7010995AACFD7011296ED9170
:10392000FC91309759F22A2D4B2D612F6F70F2CFF9
:10393000D7011496ED91FC91F4CFD7011896ED9133
:10394000FC91EFCFD7011A96ED91FC91EACF842F2D
:10395000807F803D81F0803F99F0803C09F0AECFC0
:10396000D7011E96ED91FC91309709F4A7CF4B2D0E
:10397000612F6F7010C0D7015096ED91FC91F4CF7C
:10398000433F61F4D7015296ED91FC914B2D612F8D
:10399000309709F493CFC701099569CF413F09F0EA
:1039A0008DCFD7015496ED91FC91F0CF842F0E94DA
:1039B0001A1B882359F0D7015696ED91FC91309748
:1039C00009F47CCF612FC701099551CF163F09F04B
:1039D00075CFD7015896ED91FC91F1CFFF920F93DF
:1039E0001F93CF93DF93EC01162F862F0E941A1B93
:1039F000882391F0FDA081E08DA300E020E0412F1D
:103A000061E070E0CE010E94031CFDA2DF91CF9126
:103A10001F910F91FF900895812F0E94161B4DA1B9
:103A2000882309F443C0443029F01AA381E090E0D0
:103A30009FA38EA3812F0E94201B823069F1D0F4B6
:103A400081111EC0103F51F1173FB1F42EA13FA1CB
:103A5000C90163E070E00E942728FE01E80FF91F0A
:103A600012A3B9016F5F7F4F7FA36EA30CA12BA19F
:103A70004AA10DC0833081F01DA21FA21EA2C6CF95
:103A800081E08DA300E020E0412F61E070E0CE01F5
:103A90000E94031C1DA2BACF8DA3B8CF84E08DA3D2
:103AA0001AA381E090E09FA38EA3B0CF442309F432
:103AB000ADCF2EA13FA1C90163E070E00E9427288D
:103AC000FE01E80FF91F12A3B9016F5F7F4F7FA3BB
:103AD0006EA38130910569F0029709F097CF0CA190
:103AE0002BA14AA1CE010E94031C8DA18430C9F6EE
:103AF0008DCF00E0423009F089CFF2CFCF92DF9234
:103B0000EF92FF920F931F93CF93DF93EC01E8A105
:103B1000F9A1309709F009956E0188EEC80ED11C05
:103B2000C6010E94E71D10E000E0E82EF12C0E1502
:103B30001F0548F0DF91CF911F910F91FF90EF90FB
:103B4000DF90CF90089560E0C6010E94FB1D682FB2
:103B5000CE010E94EE1C61E0C6010E940B1E0F5FA9
:103B60001F4FE5CFFC01428374836383118210826F
:103B700008951F93CF93DF93EC01162F0E94221E0E
:103B8000282FE981F0E0CF0101966A8170E00E9460
:103B90003B2838813817190641F4822F0E94251ED0
:103BA00080E0DF91CF911F9108958B819C81E80F78
:103BB000F91F1083898190E001966A8170E00E946C
:103BC0003B288983822F0E94251E81E0EACFCF9374
:103BD000DF93EC010E94221E99812881921740F008
:103BE000C92FC21B0E94251E8C2FDF91CF910895F3
:103BF000CA819C0FF5CFFC018081860F9927991F00
:103C0000628170E00E943B2823813481280F391F94
:103C1000F901808108951F93CF93DF93EC01162F54
:103C20000E94221E282F8881810F9927991F6A815F
:103C300070E00E943B288883822FDF91CF911F91F3
:103C40000C94251E8FB7F89408958FBF08959C019A
:103C5000482F477083E0369527958A95E1F757E01E
:103C6000529FC001539F900D1124442319F00197D6
:103C7000840F911D08958F929F92BF92CF92DF92F1
:103C8000EF92FF920F931F93CF93DF934C01EB01C1
:103C9000B52E842F952F67E070E00E942728D4016D
:103CA000F12CE12C30E020E02617370709F045C061
:103CB000842F9B2D67E070E00E942728B90143E024
:103CC000660F771F4A95E1F7009751F1F401E60F6F
:103CD000F71F1082A7E0A29FA001A39F500D1124FF
:103CE000C40FD51F30E020E0A9912F5F3F4F4A2F2E
:103CF000407850E0022E02C0559547950A94E2F7AD
:103D00005081452B4083AF01420F531F1A2F1F775D
:103D1000DA011C938217930739F70196680F791F10
:103D2000CB01DF91CF911F910F91FF90EF90DF902A
:103D3000CF90BF909F908F9008951C926E01CE0CF3
:103D4000DF1C90E080E0F60151916F010196052F94
:103D5000007810E0082E02C0159507950A94E2F746
:103D60001C91012B0C938D01080F191F5F77F8012F
:103D700050838730910539F72F5F3F4FF7E0EF0E03
:103D8000F11C189691CF6F927F929F92AF92BF9243
:103D9000CF92DF92EF92FF920F931F93CF93DF9317
:103DA0003C01DB019A0190E080E04230510568F16E
:103DB0005A0183E0B694A7948A95E1F7EB0110E0ED
:103DC00000E070E060E06A157B0569F5422F4770FE
:103DD00057E0569FC001579F900D11244423A9F02E
:103DE000287F5D01A20EB31EE501F301E80FF91F64
:103DF00070E060E050E08A010150110921966017DF
:103E00007107D0F10197840F951FDF91CF911F911A
:103E10000F91FF90EF90DF90CF90BF90AF909F9069
:103E20007F906F9008957301E00EF11E41E050E025
:103E3000CE01840F951FFC018081982EE89497F89D
:103E4000F70191927F016F01F1E0CF1AD1088881CB
:103E5000042E01C0880F0A94EAF780788929F601B8
:103E600080834F5F5F4F4830510511F76F5F7F4F81
:103E70002896095F1F4FA7CF2881D22EE894D7F844
:103E8000D1926F5F7F4F7F0121E0E21AF108D501E7
:103E90003C91232F062E01C0220F0A94EAF72078C6
:103EA0002D29D7012C93AACF08950895EF92FF9260
:103EB0000F931F93CF93DF93CDB7DEB7A0970FB6C5
:103EC000F894DEBF0FBECDBFF9018B01045011097C
:103ED00090E080E08417C8F417FD2BC0DF01A80F25
:103EE000B91F2C91273FF1F4C8010E94271E7C01C5
:103EF000A8016BEC71E0CE0101960E94C31EBE01C9
:103F00006F5F7F4FC7010E942107A0960FB6F894FC
:103F1000DEBF0FBECDBFDF91CF911F910F91FF90FC
:103F2000EF9008950532110584F7D801A553BE4FCF
:103F30002C930F5F1F4F0196CDCF0F931F93CF93FD
:103F4000DF9300D000D000D00F92CDB7DEB7182F8E
:103F5000092FCE0101960E947E2281110BC0279667
:103F60000FB6F894DEBF0FBECDBFDF91CF911F918A
:103F70000F9108958A810E94201B682F8A818D836A
:103F80008B818E838C818F8361110AC029812430BB
:103F900079F0273069F0263069F061E02530C9F604
:103FA000AE014B5F5F4F812F902F0E94DE1BD1CF60
:103FB00063E0F6CF62E0F4CFDF92EF92FF920F93CF
:103FC0001F93CF93DF9300D000D0CDB7DEB77B0136
:103FD000142FD22E4A832B830C83842F0E94201B04
:103FE000811129C082E0E816F10401F183E0E816AE
:103FF000F10439F0EA94EF2869F485E0173F21F4E1
:1040000004C087E0073F09F084E08983CE01019670
:104010000E9479220F900F900F900F90DF91CF9117
:104020001F910F91FF90EF90DF90089587EFD812C6
:10403000EBCF86E0EACF12951F701983E7CF80E2BD
:1040400092E00E94AD1B6CED7FE180E292E00E9465
:10405000FB1B6DE97FE180E292E00E94FF1B64E5BB
:104060007FE180E292E00E94A91B65E57FE180E2AA
:1040700092E00E94A11B66E57FE180E292E00C9451
:10408000A51BFC01CB01209111032430B1F4218147
:104090002F702093E90050E040E064E070E00E945F
:1040A000502381110BC09091E80095FD07C09091BD
:1040B000E8009E779093E800089582E00895FC015F
:1040C00080911103843089F481818F708093E9009D
:1040D0009091F3008091F200892B49F08091E800E3
:1040E0008E778093E8000C94F62482E0089580E0B7
:1040F0000895FC0180911103843059F481818F70FF
:104100008093E9008091E80080FF03C0CF010C9408
:104110005F200895FC01CB0120911103243011F0A0
:1041200080E0089526812F702093E9002091E80017
:1041300022FFF6CF2091E80025FFF2CF50E040E0CB
:1041400064E070E00E949F238091E80085FD05C037
:104150008091E8008B778093E80081E0089580915A
:10416000100208950F931F93CF93DF9300D00F9207
:10417000CDB7DEB78C010E943323823011F084303A
:1041800021F584E089830A831B8382E08093E90020
:104190008FEF9091E800815095FD06C095ED9A95BE
:1041A000F1F700008111F5CF8091E80085FF0DC087
:1041B00050E040E063E070E0CE0101960E945023A1
:1041C0008091E8008E778093E8000F900F900F9019
:1041D000DF91CF911F910F910895CF93DF9300D07E
:1041E0000F92CDB7DEB79C0180911103843031F579
:1041F00083E08983205831093B832A8382E08093BE
:10420000E9008FEF9091E800815095FD06C095ED93
:104210009A95F1F700008111F5CF8091E80085FFB4
:104220000DC050E040E063E070E0CE0101960E94D6
:1042300050238091E8008E778093E8000F900F90D4
:104240000F90DF91CF910895CF93DF93D82FC92F8F
:104250000E943323823011F0843001F582E0809394
:10426000E9008FEF9091E800815095FD06C095ED33
:104270009A95F1F700008111F5CF8091E80085FF54
:104280000DC050E040E066E070E08D2F9C2F0E9452
:1042900050238091E8008E778093E800DF91CF91E2
:1042A0000895CF93DF93D82FC92F0E9433238230F4
:1042B00011F08430C9F580911E018823C1F18091ED
:1042C0001E0287FF34C060E282E08093E9008FEF36
:1042D0009091E800815095FD06C095ED9A95F1F713
:1042E00000008111F5CF8091E80085FF1DC080910D
:1042F0001E0170E050E040E0811104C050E040E059
:1043000068E070E08D2F9C2F0E9450238091E80080
:104310008E778093E80080E2ED2FFC2FA0EFB1E0D4
:1043200001900D928A95E1F7DF91CF91089568E0B1
:1043300081E0CBCF80911003811109C00E94272515
:104340000E9484258091E20084608093E2000895B9
:10435000109210030895089508950C94361842E0C1
:1043600061EC81E00E94A32442E261EC82E00E94C1
:10437000A32442E361E883E00E94A32442E360E8CF
:1043800084E00C94A32480911303893089F148F4CC
:10439000823009F49DC0833009F458C0813041F067
:1043A00008958A3009F484C08B3009F46AC00895F6
:1043B00080911203813A09F048C08091E800877F1C
:1043C0008093E8008091160390911703892B61F484
:1043D00060E280EF91E070E00E94EE238091E800BF
:1043E0008B778093E800089560E090E080E0F3CF61
:1043F00080911203813249F5809116039091170341
:10440000029718F58091E800877F8093E8008091FB
:10441000E80082FF16C09091F3008091F2000297AD
:1044200029F48091F1008B7F813021F48091F1009B
:10443000809310028091E8008B778093E8000C94C1
:10444000D724809111038111E2CF08958091120346
:10445000813AD9F78091160390911703892BA9F718
:104460008091E800877F8093E8008091E80080FFDA
:10447000FCCF80911E018093F1008091E8008E773F
:10448000DCCF80911203813201F780911603909165
:104490001703892BD1F68091E800877F8093E8008D
:1044A0000E94D7248091140380931E010C94870FDF
:1044B00080911203813249F68091E800877F8093D2
:1044C000E8000E94D724809115038093110208957B
:1044D00080911203813A09F0B8CF8091E800877F7C
:1044E0008093E8008091E80080FFFCCF809111026A
:1044F000C2CFBC0188E091E00C944120BC0188E06F
:1045000091E00C948A200E941F2084B7877F84BF8B
:104510000FB6F894A8958091600088618093600040
:10452000109260000FBE80E890E00FB6F894809380
:104530006100909361000FBE0E94A80A0E94272587
:104540000E9484258091E20084608093E200789448
:104550000E940C280E94B00A84E191E00E94330A74
:1045600080911103853039F00E94B80A88E091E00B
:104570000E947920F5CF0E94EE1780910F038823C7
:1045800079F30E941F18882359F30E943A23E8CF39
:104590000C94CA22FC01CB01DA012F2F33272330E0
:1045A0003105D1F070F42130310509F445C02230D5
:1045B000310569F48FE990E02AE031E02D933C93D6
:1045C00008952132310521F12232310559F190E06F
:1045D00080E030E020E0F2CFCF019927E230A9F06F
:1045E0008330910550F4009769F0E2EEF0E0019716
:1045F00071F7849190E09F01E1CFE0EDF0E0039747
:10460000C1F3E5CFE6E0F1E0F4CFE6EDF0E0F1CF85
:10461000892BB9F061307105D1F689E090E025E38E
:1046200031E0CCCF892B91F06130710581F680ECBF
:1046300090E02BEB31E0C2CF82E190E029EA31E05B
:10464000BDCF89E090E02CE131E0B8CF80E490E08C
:104650002BE732E0B3CF80911103843011F482E074
:10466000089581E0089580911202811102C00C9496
:104670002B23089580E189BD82E189BD09B400FE44
:10468000FDCF8091D8008F7D8093D8008091E0008D
:1046900082608093E0008091E00081FDFCCF08956E
:1046A000AF92BF92CF92DF92FF920F931F93CF935F
:1046B000DF936C01EB018A010E94F624F82E811130
:1046C00023C00115110539F0F80180819181C81BC3
:1046D000D90BC80ED91EB12CA12C2097A9F080911E
:1046E000E80085FD22C08091E8008E778093E80085
:1046F00001151105A1F0F80180819181A80EB91E64
:10470000B182A08285E0F82E8F2DDF91CF911F918D
:104710000F91FF90DF90CF90BF90AF9008950E94CF
:10472000F6248823D1F2F82EEFCFF60181916F01A4
:104730008093F1002197FFEFAF1ABF0ACECFAF925F
:10474000BF92CF92DF92FF920F931F93CF93DF938D
:104750006C01EB018A010E94F624F82E811123C01E
:104760000115110539F0F80180819181C81BD90B21
:10477000C80ED91EB12CA12C2097A9F08091E80079
:1047800085FD22C08091E8008B778093E8000115B9
:104790001105A1F0F80180819181A80EB91EB182A6
:1047A000A08285E0F82E8F2DDF91CF911F910F9180
:1047B000FF90DF90CF90BF90AF9008950E94F624B5
:1047C0008823D1F2F82EEFCF8091F100F60181938A
:1047D0006F012197FFEFAF1ABF0ACECFFC01CB01CB
:1047E00020911803309119032617370790F000978E
:1047F00029F42091E8002E772093E80040E000970C
:1048000051F4411108C08091E80082FF31C080E07E
:104810000895C901F3CF209111032223A9F1253076
:10482000A9F12091E80023FD2DC02091E80022FD90
:10483000EACF2091E80020FFE2CF3091F3002091F1
:10484000F200009719F02830310558F041E0283087
:10485000310509F040E02091E8002E772093E80030
:10486000CECF41914093F10001972F5F3F4FE9CFA9
:1048700080911103882341F0853041F08091E80058
:1048800083FFC1CF81E0089582E0089583E0089519
:10489000FC01CB012091180330911903261737072B
:1048A00090F0009729F42091E8002E772093E800FB
:1048B00040E0009751F4411108C08091E80082FF68
:1048C00032C080E00895C901F3CF20911103222363
:1048D000B1F12530B1F12091E80023FD2EC02091E7
:1048E000E80022FDEACF2091E80020FFE2CF3091DE
:1048F000F3002091F200009719F02830310558F0AC
:1049000041E02830310509F040E02091E8002E77A1
:104910002093E800CECF44914093F1003196019767
:104920002F5F3F4FE8CF80911103882341F08530FE
:1049300041F08091E80083FFC0CF81E0089582E0DC
:10494000089583E00895982F973028F08F70809312
:10495000E90081E008959093E900242F762F50E03C
:10496000981731F07091EC002091ED005091F0001B
:1049700021FD02C09F5FE8CF3091EB003E7F309376
:10498000EB003091ED003D7F3093ED003091EB0076
:1049900031603093EB007093EC002093ED00509366
:1049A000F0002091EE0027FDE5CF80E00895809192
:1049B000120387FF13C08091E80082FF06C0809138
:1049C000E8008B778093E80004C080911103811187
:1049D000F2CF0895809111038823D9F38091E800E4
:1049E00080FFF8CF8091E8008E77ECCF2091E40033
:1049F0003091E50095E6A9012091EC00822F8170AD
:104A000020FF06C08091E80080FF06C080E0089586
:104A10002091E80022FD1AC080911103882389F0BB
:104A2000853089F08091EB0085FD0FC02091E40076
:104A30003091E50042175307F9F29150E1F684E016
:104A4000089582E0089583E0089581E008950E942A
:104A500095250E949D25E0EEF0E0808181608083B5
:104A6000E8EDF0E080818F77808319BCA7EDB0E09E
:104A70008C918E7F8C9380818F7E80831092100327
:104A800008950F931F93CF93DF930E9495250E9463
:104A90009D25C8EDD0E088818F77888388818068E4
:104AA000888388818F7D888319BC109211031092AE
:104AB0000D0310920F0310920E0300EE10E0F801A8
:104AC00080818B7F808388818160888342E060E081
:104AD00080E00E94A324E1EEF0E080818E7F80835D
:104AE000E2EEF0E080818160808380818860808355
:104AF000F80180818E7F8083888180618883DF9147
:104B0000CF911F910F910895E8EDF0E080818F7EA5
:104B10008083E7EDF0E080818160808384E082BF64
:104B200081E0809310030C944125E8EDF0E0808152
:104B30008E7F80831092E20008951092DA00109226
:104B4000E10008951F920F920FB60F9211242F9338
:104B50003F934F935F936F937F938F939F93AF9305
:104B6000BF93EF93FF938091E10082FF0BC0809190
:104B7000E20082FF07C08091E1008B7F8093E1001B
:104B80000E940B288091DA0080FF19C08091D80024
:104B900080FF15C08091DA008E7F8093DA008091CB
:104BA000D90080FF94C080E189BD82E189BD09B44C
:104BB00000FEFDCF81E0809311030E949A21809135
:104BC000E10080FF19C08091E20080FF15C0809154
:104BD000E2008E7F8093E2008091E200806180930A
:104BE000E2008091D80080628093D80019BC85E0F3
:104BF000809311030E94AC218091E10084FF29C0C1
:104C00008091E20084FF25C080E189BD82E189BDF9
:104C100009B400FEFDCF8091D8008F7D8093D8002D
:104C20008091E1008F7E8093E1008091E2008F7E91
:104C30008093E2008091E20081608093E2008091A5
:104C40000D03882309F449C084E0809311030E9476
:104C5000AD218091E10083FF29C08091E20083FFB4
:104C600025C08091E100877F8093E10082E08093FE
:104C7000110310920D038091E1008E7F8093E1007B
:104C80008091E2008E7F8093E2008091E20080615B
:104C90008093E20042E060E080E00E94A3248091E3
:104CA000F00088608093F0000E94AB21FF91EF91AB
:104CB000BF91AF919F918F917F916F915F914F9134
:104CC0003F912F910F900FBE0F901F90189519BC18
:104CD000109211030E94A82172CF8091E30087FDFA
:104CE00002C081E0B2CF83E0B0CF1F920F920FB627
:104CF0000F9211242F933F934F935F936F937F9362
:104D00008F939F93AF93BF93CF93DF93EF93FF93D3
:104D1000D091E900DF708091EC00C82FC17080FD58
:104D2000C0E81092E9008091F000877F8093F00046
:104D300078940E94B9261092E9008091F000886072
:104D40008093F000CD2BCF70C093E900FF91EF91DD
:104D5000DF91CF91BF91AF919F918F917F916F9193
:104D60005F914F913F912F910F900FBE0F901F9029
:104D700018951F93CF93DF93CDB7DEB7AA970FB6E1
:104D8000F894DEBF0FBECDBF82E193E0FC01019637
:104D90002091F100208323E08A319207B9F70E9425
:104DA000C3218091E80083FF1EC18091120390917E
:104DB00013039A3008F017C1E92FF0E0EE51F74DD8
:104DC0000C944F28803899F0823809F00CC18091FA
:104DD00016038F70873008F006C18093E900809138
:104DE000EB0085FB882780F91092E90006C08091CE
:104DF0000E0390910F03911182609091E800977FCC
:104E00009093E8008093F1001092F1008091E80007
:104E10008E77E5C0882309F4D3C0823009F0E3C05F
:104E2000809114038111D6C0809116038F702FEFEB
:104E3000280F263008F0D7C08093E9002091EB00BE
:104E400020FFC8C0933031F48091EB0080628093E2
:104E5000EB00C0C09091EB0090619093EB0021E0DB
:104E600030E001C0220F8A95EAF72093EA00109201
:104E7000EA008091EB008860EACF8111B4C0109104
:104E800014031F778091E3008078812B8093E300E7
:104E90008091E800877F8093E8000E94D72480916A
:104EA000E80080FFFCCF8091E30080688093E300FE
:104EB00082E0111183E08093110395C08058823005
:104EC00008F091C080911403909115038C3D23E06C
:104ED0009207A1F583E08A838AE289834FB7F89429
:104EE000DE01139620E03EE051E2E32FF0E0509324
:104EF0005700E49120FF03C0E295EF703F5FEF7031
:104F00008E2F90E0EA30C0F0C7968D939D932F5F6F
:104F1000243159F74FBF8091E800877F8093E800E4
:104F20006AE270E0CE0101960E94EE238091E800D3
:104F30008B778093E80057C0C096E7CF6091160347
:104F400070911703AE014F5F5F4F0E94C822BC01F2
:104F5000892B09F448C08091E800877F8093E8009E
:104F600089819A810E944824E1CF8038E1F58091BF
:104F7000E800877F8093E80080910D038093F10023
:104F800045CF811130C090911403923060F580912B
:104F9000E800877F8093E80090930D030E94D72458
:104FA00080910D03882311F084E005C08091E30017
:104FB00087FDFACF81E0809311030E94AF2113C0D7
:104FC00080911403813079F481E0933009F080E01E
:104FD00080930F031092E9008091E800877F80930F
:104FE000E8000E94D7248091E80083FF0AC08091E6
:104FF000E800877F8093E8008091EB0080628093D7
:10500000EB00AA960FB6F894DEBF0FBECDBFDF91BE
:10501000CF911F9108950895CF9380911103882314
:10502000A1F0C091E900CF709091EC00892F8170C0
:1050300090FD80E8C82B1092E9008091E80083FD84
:105040000E94B926CF70C093E900CF910895AA1BA2
:10505000BB1B51E107C0AA1FBB1FA617B70710F063
:10506000A61BB70B881F991F5A95A9F78095909595
:10507000BC01CD01089597FB072E16F4009407D0CC
:1050800077FD09D00E94272807FC05D03EF49095B3
:1050900081959F4F0895709561957F4F0895EE0F0C
:1050A000FF1F0590F491E02D099469279627692741
:1050B0007827872778270895FB01DC0102C001903B
:1050C0000D9241505040D8F70895F999FECF92BD06
:1050D00081BDF89A992780B50895A8E1B0E042E033
:1050E00050E00C949928262FF999FECF92BD81BDEE
:1050F000F89A019700B4021639F01FBA20BD0FB616
:10510000F894FA9AF99A0FBE08950396272F0E94F1
:1051100074280E947328252F0E947428242F0C9431
:1051200074280196272F0E9474280C947328DC01A0
:10513000CB01FC01F999FECF06C0F2BDE1BDF89AA2
:10514000319600B40D9241505040B8F70895F8944C
:10515000FFCF88079D07A907D707CB07D1073F07D0
:105160009107C5073F073F073F07E107A809AE09B9
:10517000B209C009C409C809CC09D209DA09DE0993
:10518000E209E609F209F609FA09FE09040A220A07
:105190000C0AB609BC09EA09EE09D609080A180A78
:1051A0002B0A2F0ADD0CDD0C3F0D3F0D940DB00DC9
:1051B0000D0D0D0DF40DA70EB80EB80E190F0D0D37
:1051C0000D0D220FE2260A27F3270A27F3273D2792
:0851D0005E27F327B527C12774
:1051D8009C012808140A321E038340000001044081
:1051E80000000100AF2051212421ED20B220010050
:1051F8000000F4F5F691909402030200000100010A
:08520800010101010001010098
:00000001FF
